{
  "_format": "hh-sol-artifact-1",
  "contractName": "KadakNFT",
  "sourceName": "contracts/KadakNFT.sol",
  "abi": [
    {
      "inputs": [],
      "stateMutability": "nonpayable",
      "type": "constructor"
    },
    {
      "anonymous": false,
      "inputs": [
        {
          "indexed": true,
          "internalType": "address",
          "name": "owner",
          "type": "address"
        },
        {
          "indexed": true,
          "internalType": "address",
          "name": "approved",
          "type": "address"
        },
        {
          "indexed": true,
          "internalType": "uint256",
          "name": "tokenId",
          "type": "uint256"
        }
      ],
      "name": "Approval",
      "type": "event"
    },
    {
      "anonymous": false,
      "inputs": [
        {
          "indexed": true,
          "internalType": "address",
          "name": "owner",
          "type": "address"
        },
        {
          "indexed": true,
          "internalType": "address",
          "name": "operator",
          "type": "address"
        },
        {
          "indexed": false,
          "internalType": "bool",
          "name": "approved",
          "type": "bool"
        }
      ],
      "name": "ApprovalForAll",
      "type": "event"
    },
    {
      "anonymous": false,
      "inputs": [
        {
          "indexed": false,
          "internalType": "address",
          "name": "sender",
          "type": "address"
        },
        {
          "indexed": false,
          "internalType": "uint256",
          "name": "tokenId",
          "type": "uint256"
        }
      ],
      "name": "NewKadakNFTMinted",
      "type": "event"
    },
    {
      "anonymous": false,
      "inputs": [
        {
          "indexed": true,
          "internalType": "address",
          "name": "from",
          "type": "address"
        },
        {
          "indexed": true,
          "internalType": "address",
          "name": "to",
          "type": "address"
        },
        {
          "indexed": true,
          "internalType": "uint256",
          "name": "tokenId",
          "type": "uint256"
        }
      ],
      "name": "Transfer",
      "type": "event"
    },
    {
      "inputs": [
        {
          "internalType": "address",
          "name": "to",
          "type": "address"
        },
        {
          "internalType": "uint256",
          "name": "tokenId",
          "type": "uint256"
        }
      ],
      "name": "approve",
      "outputs": [],
      "stateMutability": "nonpayable",
      "type": "function"
    },
    {
      "inputs": [
        {
          "internalType": "address",
          "name": "owner",
          "type": "address"
        }
      ],
      "name": "balanceOf",
      "outputs": [
        {
          "internalType": "uint256",
          "name": "",
          "type": "uint256"
        }
      ],
      "stateMutability": "view",
      "type": "function"
    },
    {
      "inputs": [
        {
          "internalType": "uint256",
          "name": "tokenId",
          "type": "uint256"
        }
      ],
      "name": "getApproved",
      "outputs": [
        {
          "internalType": "address",
          "name": "",
          "type": "address"
        }
      ],
      "stateMutability": "view",
      "type": "function"
    },
    {
      "inputs": [
        {
          "internalType": "address",
          "name": "owner",
          "type": "address"
        },
        {
          "internalType": "address",
          "name": "operator",
          "type": "address"
        }
      ],
      "name": "isApprovedForAll",
      "outputs": [
        {
          "internalType": "bool",
          "name": "",
          "type": "bool"
        }
      ],
      "stateMutability": "view",
      "type": "function"
    },
    {
      "inputs": [],
      "name": "makeAnKadakNFT",
      "outputs": [],
      "stateMutability": "nonpayable",
      "type": "function"
    },
    {
      "inputs": [],
      "name": "name",
      "outputs": [
        {
          "internalType": "string",
          "name": "",
          "type": "string"
        }
      ],
      "stateMutability": "view",
      "type": "function"
    },
    {
      "inputs": [
        {
          "internalType": "uint256",
          "name": "tokenId",
          "type": "uint256"
        }
      ],
      "name": "ownerOf",
      "outputs": [
        {
          "internalType": "address",
          "name": "",
          "type": "address"
        }
      ],
      "stateMutability": "view",
      "type": "function"
    },
    {
      "inputs": [
        {
          "internalType": "uint256",
          "name": "tokenId",
          "type": "uint256"
        }
      ],
      "name": "pickFirstWord",
      "outputs": [
        {
          "internalType": "string",
          "name": "",
          "type": "string"
        }
      ],
      "stateMutability": "view",
      "type": "function"
    },
    {
      "inputs": [
        {
          "internalType": "uint256",
          "name": "tokenId",
          "type": "uint256"
        }
      ],
      "name": "pickSecondWord",
      "outputs": [
        {
          "internalType": "string",
          "name": "",
          "type": "string"
        }
      ],
      "stateMutability": "view",
      "type": "function"
    },
    {
      "inputs": [
        {
          "internalType": "uint256",
          "name": "tokenId",
          "type": "uint256"
        }
      ],
      "name": "pickThirdWord",
      "outputs": [
        {
          "internalType": "string",
          "name": "",
          "type": "string"
        }
      ],
      "stateMutability": "view",
      "type": "function"
    },
    {
      "inputs": [
        {
          "internalType": "address",
          "name": "from",
          "type": "address"
        },
        {
          "internalType": "address",
          "name": "to",
          "type": "address"
        },
        {
          "internalType": "uint256",
          "name": "tokenId",
          "type": "uint256"
        }
      ],
      "name": "safeTransferFrom",
      "outputs": [],
      "stateMutability": "nonpayable",
      "type": "function"
    },
    {
      "inputs": [
        {
          "internalType": "address",
          "name": "from",
          "type": "address"
        },
        {
          "internalType": "address",
          "name": "to",
          "type": "address"
        },
        {
          "internalType": "uint256",
          "name": "tokenId",
          "type": "uint256"
        },
        {
          "internalType": "bytes",
          "name": "_data",
          "type": "bytes"
        }
      ],
      "name": "safeTransferFrom",
      "outputs": [],
      "stateMutability": "nonpayable",
      "type": "function"
    },
    {
      "inputs": [
        {
          "internalType": "address",
          "name": "operator",
          "type": "address"
        },
        {
          "internalType": "bool",
          "name": "approved",
          "type": "bool"
        }
      ],
      "name": "setApprovalForAll",
      "outputs": [],
      "stateMutability": "nonpayable",
      "type": "function"
    },
    {
      "inputs": [
        {
          "internalType": "bytes4",
          "name": "interfaceId",
          "type": "bytes4"
        }
      ],
      "name": "supportsInterface",
      "outputs": [
        {
          "internalType": "bool",
          "name": "",
          "type": "bool"
        }
      ],
      "stateMutability": "view",
      "type": "function"
    },
    {
      "inputs": [],
      "name": "symbol",
      "outputs": [
        {
          "internalType": "string",
          "name": "",
          "type": "string"
        }
      ],
      "stateMutability": "view",
      "type": "function"
    },
    {
      "inputs": [
        {
          "internalType": "uint256",
          "name": "tokenId",
          "type": "uint256"
        }
      ],
      "name": "tokenURI",
      "outputs": [
        {
          "internalType": "string",
          "name": "",
          "type": "string"
        }
      ],
      "stateMutability": "view",
      "type": "function"
    },
    {
      "inputs": [
        {
          "internalType": "address",
          "name": "from",
          "type": "address"
        },
        {
          "internalType": "address",
          "name": "to",
          "type": "address"
        },
        {
          "internalType": "uint256",
          "name": "tokenId",
          "type": "uint256"
        }
      ],
      "name": "transferFrom",
      "outputs": [],
      "stateMutability": "nonpayable",
      "type": "function"
    }
  ],
  "bytecode": "0x608060405260405180610160016040528061012f81526020016200444561012f91396008908051906020019062000038929190620005cd565b506040518060a001604052806040518060400160405280600581526020017f536d616c6c00000000000000000000000000000000000000000000000000000081525081526020016040518060400160405280600681526020017f4d656469756d000000000000000000000000000000000000000000000000000081525081526020016040518060400160405280600581526020017f4c6172676500000000000000000000000000000000000000000000000000000081525081526020016040518060400160405280600981526020017f436f6d626f53697a65000000000000000000000000000000000000000000000081525081526020016040518060400160405280600681526020017f584c53697a65000000000000000000000000000000000000000000000000000081525081525060099060056200017b9291906200065e565b506040518060a001604052806040518060400160405280600681526020017f436865657365000000000000000000000000000000000000000000000000000081525081526020016040518060400160405280600781526020017f436869636b656e0000000000000000000000000000000000000000000000000081525081526020016040518060400160405280600681526020017f566567676965000000000000000000000000000000000000000000000000000081525081526020016040518060400160405280600681526020017f50616e656572000000000000000000000000000000000000000000000000000081525081526020016040518060400160405280600581526020017f506c61696e000000000000000000000000000000000000000000000000000000815250815250600a906005620002be9291906200065e565b506040518060a001604052806040518060400160405280600581526020017f50697a7a6100000000000000000000000000000000000000000000000000000081525081526020016040518060400160405280600d81526020017f54616e646f6f726970697a7a610000000000000000000000000000000000000081525081526020016040518060400160405280600e81526020017f5468696e637275737470697a7a6100000000000000000000000000000000000081525081526020016040518060400160405280600881526020017f486f7470697a7a6100000000000000000000000000000000000000000000000081525081526020016040518060400160405280600a81526020017f537069637970697a7a6100000000000000000000000000000000000000000000815250815250600b906005620004019291906200065e565b503480156200040f57600080fd5b506040518060400160405280600a81526020017f50757368706142686175000000000000000000000000000000000000000000008152506040518060400160405280600681526020017f5055534850410000000000000000000000000000000000000000000000000000815250816000908051906020019062000494929190620005cd565b508060019080519060200190620004ad929190620005cd565b505050620004fb6040518060400160405280601481526020017f426c6f636b436f6465727320526f636b732021210000000000000000000000008152506200050160201b620011bc1760201c565b6200087f565b620005a18160405160240162000518919062000793565b6040516020818303038152906040527f41304fac000000000000000000000000000000000000000000000000000000007bffffffffffffffffffffffffffffffffffffffffffffffffffffffff19166020820180517bffffffffffffffffffffffffffffffffffffffffffffffffffffffff8381831617835250505050620005a460201b60201c565b50565b60008151905060006a636f6e736f6c652e6c6f679050602083016000808483855afa5050505050565b828054620005db9062000809565b90600052602060002090601f016020900481019282620005ff57600085556200064b565b82601f106200061a57805160ff19168380011785556200064b565b828001600101855582156200064b579182015b828111156200064a5782518255916020019190600101906200062d565b5b5090506200065a9190620006c5565b5090565b828054828255906000526020600020908101928215620006b2579160200282015b82811115620006b1578251829080519060200190620006a0929190620005cd565b50916020019190600101906200067f565b5b509050620006c19190620006e4565b5090565b5b80821115620006e0576000816000905550600101620006c6565b5090565b5b80821115620007085760008181620006fe91906200070c565b50600101620006e5565b5090565b5080546200071a9062000809565b6000825580601f106200072e57506200074f565b601f0160209004906000526020600020908101906200074e9190620006c5565b5b50565b60006200075f82620007b7565b6200076b8185620007c2565b93506200077d818560208601620007d3565b62000788816200086e565b840191505092915050565b60006020820190508181036000830152620007af818462000752565b905092915050565b600081519050919050565b600082825260208201905092915050565b60005b83811015620007f3578082015181840152602081019050620007d6565b8381111562000803576000848401525b50505050565b600060028204905060018216806200082257607f821691505b602082108114156200083957620008386200083f565b5b50919050565b7f4e487b7100000000000000000000000000000000000000000000000000000000600052602260045260246000fd5b6000601f19601f8301169050919050565b613bb6806200088f6000396000f3fe608060405234801561001057600080fd5b506004361061010b5760003560e01c80636352211e116100a2578063b88d4fde11610071578063b88d4fde146102b6578063c6303386146102d2578063c87b56dd14610302578063e2d2c30814610332578063e985e9c5146103625761010b565b80636352211e1461021c57806370a082311461024c57806395d89b411461027c578063a22cb4651461029a5761010b565b806323b872dd116100de57806323b872dd146101aa578063385e3477146101c65780633bad0d36146101d057806342842e0e146102005761010b565b806301ffc9a71461011057806306fdde0314610140578063081812fc1461015e578063095ea7b31461018e575b600080fd5b61012a60048036038101906101259190612658565b610392565b6040516101379190612d7c565b60405180910390f35b610148610474565b6040516101559190612d97565b60405180910390f35b610178600480360381019061017391906126aa565b610506565b6040516101859190612cec565b60405180910390f35b6101a860048036038101906101a3919061261c565b61058b565b005b6101c460048036038101906101bf9190612516565b6106a3565b005b6101ce610703565b005b6101ea60048036038101906101e591906126aa565b6109e8565b6040516101f79190612d97565b60405180910390f35b61021a60048036038101906102159190612516565b610b06565b005b610236600480360381019061023191906126aa565b610b26565b6040516102439190612cec565b60405180910390f35b610266600480360381019061026191906124b1565b610bd8565b604051610273919061302e565b60405180910390f35b610284610c90565b6040516102919190612d97565b60405180910390f35b6102b460048036038101906102af91906125e0565b610d22565b005b6102d060048036038101906102cb9190612565565b610d38565b005b6102ec60048036038101906102e791906126aa565b610d9a565b6040516102f99190612d97565b60405180910390f35b61031c600480360381019061031791906126aa565b610eb8565b6040516103299190612d97565b60405180910390f35b61034c600480360381019061034791906126aa565b61100a565b6040516103599190612d97565b60405180910390f35b61037c600480360381019061037791906124da565b611128565b6040516103899190612d7c565b60405180910390f35b60007f80ac58cd000000000000000000000000000000000000000000000000000000007bffffffffffffffffffffffffffffffffffffffffffffffffffffffff1916827bffffffffffffffffffffffffffffffffffffffffffffffffffffffff1916148061045d57507f5b5e139f000000000000000000000000000000000000000000000000000000007bffffffffffffffffffffffffffffffffffffffffffffffffffffffff1916827bffffffffffffffffffffffffffffffffffffffffffffffffffffffff1916145b8061046d575061046c82611255565b5b9050919050565b606060008054610483906132c2565b80601f01602080910402602001604051908101604052809291908181526020018280546104af906132c2565b80156104fc5780601f106104d1576101008083540402835291602001916104fc565b820191906000526020600020905b8154815290600101906020018083116104df57829003601f168201915b5050505050905090565b6000610511826112bf565b610550576040517f08c379a000000000000000000000000000000000000000000000000000000000815260040161054790612f8e565b60405180910390fd5b6004600083815260200190815260200160002060009054906101000a900473ffffffffffffffffffffffffffffffffffffffff169050919050565b600061059682610b26565b90508073ffffffffffffffffffffffffffffffffffffffff168373ffffffffffffffffffffffffffffffffffffffff161415610607576040517f08c379a00000000000000000000000000000000000000000000000000000000081526004016105fe90612fee565b60405180910390fd5b8073ffffffffffffffffffffffffffffffffffffffff1661062661132b565b73ffffffffffffffffffffffffffffffffffffffff16148061065557506106548161064f61132b565b611128565b5b610694576040517f08c379a000000000000000000000000000000000000000000000000000000000815260040161068b90612ece565b60405180910390fd5b61069e8383611333565b505050565b6106b46106ae61132b565b826113ec565b6106f3576040517f08c379a00000000000000000000000000000000000000000000000000000000081526004016106ea9061300e565b60405180910390fd5b6106fe8383836114ca565b505050565b600061070f6007611726565b9050600061071c826109e8565b9050600061072983610d9a565b905060006107368461100a565b9050600083838360405160200161074f93929190612ba5565b60405160208183030381529060405290506000600885858560405160200161077a9493929190612bd6565b604051602081830303815290604052905060006107bf8361079a84611734565b6040516020016107ab929190612c63565b604051602081830303815290604052611734565b90506108006040518060400160405280601181526020017f0a2046696e616c546f6b656e5572693a20000000000000000000000000000000815250826118f2565b61083e6040518060400160405280601581526020017f0a2d2d2d2d2d2d2d2d2d2d2d2d2d2d2d2d2d2d2d2d00000000000000000000008152506111bc565b610847826111bc565b6108856040518060400160405280601581526020017f2d2d2d2d2d2d2d2d2d2d2d2d2d2d2d2d2d2d2d2d0a00000000000000000000008152506111bc565b6000816040516020016108989190612cca565b60405160208183030381529060405290506108e76040518060400160405280601581526020017f0a2d2d2d2d2d2d2d2d2d2d2d2d2d2d2d2d2d2d2d2d00000000000000000000008152506111bc565b6109266040518060400160405280600a81526020017f46696e616c205552493a00000000000000000000000000000000000000000000815250826118f2565b6109646040518060400160405280601581526020017f2d2d2d2d2d2d2d2d2d2d2d2d2d2d2d2d2d2d2d2d0a00000000000000000000008152506111bc565b61096e338961198e565b61097888826119ac565b6109826007611a20565b6109a5604051806060016040528060408152602001613b01604091398933611a36565b7fd70b8d8df32d605e4859c6bbcec2718cb5471cf8f84feeb4bbfb5aaf27e2847533896040516109d6929190612d53565b60405180910390a15050505050505050565b60606000610a1c6109f884611ad5565b604051602001610a089190612ca8565b604051602081830303815290604052611c82565b905060098054905081610a2f919061336e565b905060098181548110610a6b577f4e487b7100000000000000000000000000000000000000000000000000000000600052603260045260246000fd5b906000526020600020018054610a80906132c2565b80601f0160208091040260200160405190810160405280929190818152602001828054610aac906132c2565b8015610af95780601f10610ace57610100808354040283529160200191610af9565b820191906000526020600020905b815481529060010190602001808311610adc57829003601f168201915b5050505050915050919050565b610b2183838360405180602001604052806000815250610d38565b505050565b6000806002600084815260200190815260200160002060009054906101000a900473ffffffffffffffffffffffffffffffffffffffff169050600073ffffffffffffffffffffffffffffffffffffffff168173ffffffffffffffffffffffffffffffffffffffff161415610bcf576040517f08c379a0000000000000000000000000000000000000000000000000000000008152600401610bc690612f0e565b60405180910390fd5b80915050919050565b60008073ffffffffffffffffffffffffffffffffffffffff168273ffffffffffffffffffffffffffffffffffffffff161415610c49576040517f08c379a0000000000000000000000000000000000000000000000000000000008152600401610c4090612eee565b60405180910390fd5b600360008373ffffffffffffffffffffffffffffffffffffffff1673ffffffffffffffffffffffffffffffffffffffff168152602001908152602001600020549050919050565b606060018054610c9f906132c2565b80601f0160208091040260200160405190810160405280929190818152602001828054610ccb906132c2565b8015610d185780601f10610ced57610100808354040283529160200191610d18565b820191906000526020600020905b815481529060010190602001808311610cfb57829003601f168201915b5050505050905090565b610d34610d2d61132b565b8383611cb5565b5050565b610d49610d4361132b565b836113ec565b610d88576040517f08c379a0000000000000000000000000000000000000000000000000000000008152600401610d7f9061300e565b60405180910390fd5b610d9484848484611e22565b50505050565b60606000610dce610daa84611ad5565b604051602001610dba9190612c41565b604051602081830303815290604052611c82565b9050600a8054905081610de1919061336e565b9050600a8181548110610e1d577f4e487b7100000000000000000000000000000000000000000000000000000000600052603260045260246000fd5b906000526020600020018054610e32906132c2565b80601f0160208091040260200160405190810160405280929190818152602001828054610e5e906132c2565b8015610eab5780601f10610e8057610100808354040283529160200191610eab565b820191906000526020600020905b815481529060010190602001808311610e8e57829003601f168201915b5050505050915050919050565b6060610ec3826112bf565b610f02576040517f08c379a0000000000000000000000000000000000000000000000000000000008152600401610ef990612f6e565b60405180910390fd5b6000600660008481526020019081526020016000208054610f22906132c2565b80601f0160208091040260200160405190810160405280929190818152602001828054610f4e906132c2565b8015610f9b5780601f10610f7057610100808354040283529160200191610f9b565b820191906000526020600020905b815481529060010190602001808311610f7e57829003601f168201915b505050505090506000610fac611e7e565b9050600081511415610fc2578192505050611005565b600082511115610ff7578082604051602001610fdf929190612b81565b60405160208183030381529060405292505050611005565b61100084611e95565b925050505b919050565b6060600061103e61101a84611ad5565b60405160200161102a9190612c1f565b604051602081830303815290604052611c82565b9050600b8054905081611051919061336e565b9050600b818154811061108d577f4e487b7100000000000000000000000000000000000000000000000000000000600052603260045260246000fd5b9060005260206000200180546110a2906132c2565b80601f01602080910402602001604051908101604052809291908181526020018280546110ce906132c2565b801561111b5780601f106110f05761010080835404028352916020019161111b565b820191906000526020600020905b8154815290600101906020018083116110fe57829003601f168201915b5050505050915050919050565b6000600560008473ffffffffffffffffffffffffffffffffffffffff1673ffffffffffffffffffffffffffffffffffffffff16815260200190815260200160002060008373ffffffffffffffffffffffffffffffffffffffff1673ffffffffffffffffffffffffffffffffffffffff16815260200190815260200160002060009054906101000a900460ff16905092915050565b611252816040516024016111d09190612d97565b6040516020818303038152906040527f41304fac000000000000000000000000000000000000000000000000000000007bffffffffffffffffffffffffffffffffffffffffffffffffffffffff19166020820180517bffffffffffffffffffffffffffffffffffffffffffffffffffffffff8381831617835250505050611f3c565b50565b60007f01ffc9a7000000000000000000000000000000000000000000000000000000007bffffffffffffffffffffffffffffffffffffffffffffffffffffffff1916827bffffffffffffffffffffffffffffffffffffffffffffffffffffffff1916149050919050565b60008073ffffffffffffffffffffffffffffffffffffffff166002600084815260200190815260200160002060009054906101000a900473ffffffffffffffffffffffffffffffffffffffff1673ffffffffffffffffffffffffffffffffffffffff1614159050919050565b600033905090565b816004600083815260200190815260200160002060006101000a81548173ffffffffffffffffffffffffffffffffffffffff021916908373ffffffffffffffffffffffffffffffffffffffff160217905550808273ffffffffffffffffffffffffffffffffffffffff166113a683610b26565b73ffffffffffffffffffffffffffffffffffffffff167f8c5be1e5ebec7d5bd14f71427d1e84f3dd0314c0f7b2291e5b200ac8c7c3b92560405160405180910390a45050565b60006113f7826112bf565b611436576040517f08c379a000000000000000000000000000000000000000000000000000000000815260040161142d90612eae565b60405180910390fd5b600061144183610b26565b90508073ffffffffffffffffffffffffffffffffffffffff168473ffffffffffffffffffffffffffffffffffffffff1614806114b057508373ffffffffffffffffffffffffffffffffffffffff1661149884610506565b73ffffffffffffffffffffffffffffffffffffffff16145b806114c157506114c08185611128565b5b91505092915050565b8273ffffffffffffffffffffffffffffffffffffffff166114ea82610b26565b73ffffffffffffffffffffffffffffffffffffffff1614611540576040517f08c379a000000000000000000000000000000000000000000000000000000000815260040161153790612fae565b60405180910390fd5b600073ffffffffffffffffffffffffffffffffffffffff168273ffffffffffffffffffffffffffffffffffffffff1614156115b0576040517f08c379a00000000000000000000000000000000000000000000000000000000081526004016115a790612e6e565b60405180910390fd5b6115bb838383611f65565b6115c6600082611333565b6001600360008573ffffffffffffffffffffffffffffffffffffffff1673ffffffffffffffffffffffffffffffffffffffff168152602001908152602001600020600082825461161691906131d8565b925050819055506001600360008473ffffffffffffffffffffffffffffffffffffffff1673ffffffffffffffffffffffffffffffffffffffff168152602001908152602001600020600082825461166d91906130f7565b92505081905550816002600083815260200190815260200160002060006101000a81548173ffffffffffffffffffffffffffffffffffffffff021916908373ffffffffffffffffffffffffffffffffffffffff160217905550808273ffffffffffffffffffffffffffffffffffffffff168473ffffffffffffffffffffffffffffffffffffffff167fddf252ad1be2c89b69c2b068fc378daa952ba7f163c4a11628f55a4df523b3ef60405160405180910390a4505050565b600081600001549050919050565b6060600082519050600081141561175d57604051806020016040528060008152509150506118ed565b6000600360028361176e91906130f7565b611778919061314d565b6004611784919061317e565b9050600060208261179591906130f7565b67ffffffffffffffff8111156117d4577f4e487b7100000000000000000000000000000000000000000000000000000000600052604160045260246000fd5b6040519080825280601f01601f1916602001820160405280156118065781602001600182028036833780820191505090505b5090506000604051806060016040528060408152602001613b41604091399050600181016020830160005b868110156118aa5760038101905062ffffff818a015116603f8160121c168401518060081b905060ff603f83600c1c1686015116810190508060081b905060ff603f8360061c1686015116810190508060081b905060ff603f831686015116810190508060e01b90508084526004840193505050611831565b5060038606600181146118c457600281146118d4576118df565b613d3d60f01b60028303526118df565b603d60f81b60018303525b508484525050819450505050505b919050565b61198a8282604051602401611908929190612db9565b6040516020818303038152906040527f4b5c4277000000000000000000000000000000000000000000000000000000007bffffffffffffffffffffffffffffffffffffffffffffffffffffffff19166020820180517bffffffffffffffffffffffffffffffffffffffffffffffffffffffff8381831617835250505050611f3c565b5050565b6119a8828260405180602001604052806000815250611f6a565b5050565b6119b5826112bf565b6119f4576040517f08c379a00000000000000000000000000000000000000000000000000000000081526004016119eb90612f2e565b60405180910390fd5b80600660008481526020019081526020016000209080519060200190611a1b92919061233d565b505050565b6001816000016000828254019250508190555050565b611ad0838383604051602401611a4e93929190612df0565b6040516020818303038152906040527fe3849f79000000000000000000000000000000000000000000000000000000007bffffffffffffffffffffffffffffffffffffffffffffffffffffffff19166020820180517bffffffffffffffffffffffffffffffffffffffffffffffffffffffff8381831617835250505050611f3c565b505050565b60606000821415611b1d576040518060400160405280600181526020017f30000000000000000000000000000000000000000000000000000000000000008152509050611c7d565b600082905060005b60008214611b4f578080611b3890613325565b915050600a82611b48919061314d565b9150611b25565b60008167ffffffffffffffff811115611b91577f4e487b7100000000000000000000000000000000000000000000000000000000600052604160045260246000fd5b6040519080825280601f01601f191660200182016040528015611bc35781602001600182028036833780820191505090505b5090505b60008514611c7657600182611bdc91906131d8565b9150600a85611beb919061336e565b6030611bf791906130f7565b60f81b818381518110611c33577f4e487b7100000000000000000000000000000000000000000000000000000000600052603260045260246000fd5b60200101907effffffffffffffffffffffffffffffffffffffffffffffffffffffffffffff1916908160001a905350600a85611c6f919061314d565b9450611bc7565b8093505050505b919050565b600081604051602001611c959190612b6a565b6040516020818303038152906040528051906020012060001c9050919050565b8173ffffffffffffffffffffffffffffffffffffffff168373ffffffffffffffffffffffffffffffffffffffff161415611d24576040517f08c379a0000000000000000000000000000000000000000000000000000000008152600401611d1b90612e8e565b60405180910390fd5b80600560008573ffffffffffffffffffffffffffffffffffffffff1673ffffffffffffffffffffffffffffffffffffffff16815260200190815260200160002060008473ffffffffffffffffffffffffffffffffffffffff1673ffffffffffffffffffffffffffffffffffffffff16815260200190815260200160002060006101000a81548160ff0219169083151502179055508173ffffffffffffffffffffffffffffffffffffffff168373ffffffffffffffffffffffffffffffffffffffff167f17307eab39ab6107e8899845ad3d59bd9653f200f220920489ca2b5937696c3183604051611e159190612d7c565b60405180910390a3505050565b611e2d8484846114ca565b611e3984848484611fc5565b611e78576040517f08c379a0000000000000000000000000000000000000000000000000000000008152600401611e6f90612e2e565b60405180910390fd5b50505050565b606060405180602001604052806000815250905090565b6060611ea0826112bf565b611edf576040517f08c379a0000000000000000000000000000000000000000000000000000000008152600401611ed690612fce565b60405180910390fd5b6000611ee9611e7e565b90506000815111611f095760405180602001604052806000815250611f34565b80611f1384611ad5565b604051602001611f24929190612b81565b6040516020818303038152906040525b915050919050565b60008151905060006a636f6e736f6c652e6c6f679050602083016000808483855afa5050505050565b505050565b611f74838361215c565b611f816000848484611fc5565b611fc0576040517f08c379a0000000000000000000000000000000000000000000000000000000008152600401611fb790612e2e565b60405180910390fd5b505050565b6000611fe68473ffffffffffffffffffffffffffffffffffffffff1661232a565b1561214f578373ffffffffffffffffffffffffffffffffffffffff1663150b7a0261200f61132b565b8786866040518563ffffffff1660e01b81526004016120319493929190612d07565b602060405180830381600087803b15801561204b57600080fd5b505af192505050801561207c57506040513d601f19601f820116820180604052508101906120799190612681565b60015b6120ff573d80600081146120ac576040519150601f19603f3d011682016040523d82523d6000602084013e6120b1565b606091505b506000815114156120f7576040517f08c379a00000000000000000000000000000000000000000000000000000000081526004016120ee90612e2e565b60405180910390fd5b805181602001fd5b63150b7a0260e01b7bffffffffffffffffffffffffffffffffffffffffffffffffffffffff1916817bffffffffffffffffffffffffffffffffffffffffffffffffffffffff191614915050612154565b600190505b949350505050565b600073ffffffffffffffffffffffffffffffffffffffff168273ffffffffffffffffffffffffffffffffffffffff1614156121cc576040517f08c379a00000000000000000000000000000000000000000000000000000000081526004016121c390612f4e565b60405180910390fd5b6121d5816112bf565b15612215576040517f08c379a000000000000000000000000000000000000000000000000000000000815260040161220c90612e4e565b60405180910390fd5b61222160008383611f65565b6001600360008473ffffffffffffffffffffffffffffffffffffffff1673ffffffffffffffffffffffffffffffffffffffff168152602001908152602001600020600082825461227191906130f7565b92505081905550816002600083815260200190815260200160002060006101000a81548173ffffffffffffffffffffffffffffffffffffffff021916908373ffffffffffffffffffffffffffffffffffffffff160217905550808273ffffffffffffffffffffffffffffffffffffffff16600073ffffffffffffffffffffffffffffffffffffffff167fddf252ad1be2c89b69c2b068fc378daa952ba7f163c4a11628f55a4df523b3ef60405160405180910390a45050565b600080823b905060008111915050919050565b828054612349906132c2565b90600052602060002090601f01602090048101928261236b57600085556123b2565b82601f1061238457805160ff19168380011785556123b2565b828001600101855582156123b2579182015b828111156123b1578251825591602001919060010190612396565b5b5090506123bf91906123c3565b5090565b5b808211156123dc5760008160009055506001016123c4565b5090565b60006123f36123ee8461306e565b613049565b90508281526020810184848401111561240b57600080fd5b612416848285613280565b509392505050565b60008135905061242d81613aa4565b92915050565b60008135905061244281613abb565b92915050565b60008135905061245781613ad2565b92915050565b60008151905061246c81613ad2565b92915050565b600082601f83011261248357600080fd5b81356124938482602086016123e0565b91505092915050565b6000813590506124ab81613ae9565b92915050565b6000602082840312156124c357600080fd5b60006124d18482850161241e565b91505092915050565b600080604083850312156124ed57600080fd5b60006124fb8582860161241e565b925050602061250c8582860161241e565b9150509250929050565b60008060006060848603121561252b57600080fd5b60006125398682870161241e565b935050602061254a8682870161241e565b925050604061255b8682870161249c565b9150509250925092565b6000806000806080858703121561257b57600080fd5b60006125898782880161241e565b945050602061259a8782880161241e565b93505060406125ab8782880161249c565b925050606085013567ffffffffffffffff8111156125c857600080fd5b6125d487828801612472565b91505092959194509250565b600080604083850312156125f357600080fd5b60006126018582860161241e565b925050602061261285828601612433565b9150509250929050565b6000806040838503121561262f57600080fd5b600061263d8582860161241e565b925050602061264e8582860161249c565b9150509250929050565b60006020828403121561266a57600080fd5b600061267884828501612448565b91505092915050565b60006020828403121561269357600080fd5b60006126a18482850161245d565b91505092915050565b6000602082840312156126bc57600080fd5b60006126ca8482850161249c565b91505092915050565b6126dc8161320c565b82525050565b6126eb8161321e565b82525050565b60006126fc826130b4565b61270681856130ca565b935061271681856020860161328f565b61271f8161345b565b840191505092915050565b6000612735826130bf565b61273f81856130db565b935061274f81856020860161328f565b6127588161345b565b840191505092915050565b600061276e826130bf565b61277881856130ec565b935061278881856020860161328f565b80840191505092915050565b600081546127a1816132c2565b6127ab81866130ec565b945060018216600081146127c657600181146127d75761280a565b60ff1983168652818601935061280a565b6127e08561309f565b60005b83811015612802578154818901526001820191506020810190506127e3565b838801955050505b50505092915050565b60006128206032836130db565b915061282b8261346c565b604082019050919050565b6000612843601c836130db565b915061284e826134bb565b602082019050919050565b6000612866600a836130ec565b9150612871826134e4565b600a82019050919050565b60006128896024836130db565b91506128948261350d565b604082019050919050565b60006128ac6019836130db565b91506128b78261355c565b602082019050919050565b60006128cf6063836130ec565b91506128da82613585565b606382019050919050565b60006128f2600b836130ec565b91506128fd82613620565b600b82019050919050565b6000612915602c836130db565b915061292082613649565b604082019050919050565b6000612938600d836130ec565b915061294382613698565b600d82019050919050565b600061295b6038836130db565b9150612966826136c1565b604082019050919050565b600061297e602a836130db565b915061298982613710565b604082019050919050565b60006129a16029836130db565b91506129ac8261375f565b604082019050919050565b60006129c4602e836130db565b91506129cf826137ae565b604082019050919050565b60006129e76002836130ec565b91506129f2826137fd565b600282019050919050565b6000612a0a6020836130db565b9150612a1582613826565b602082019050919050565b6000612a2d6031836130db565b9150612a388261384f565b604082019050919050565b6000612a50602c836130db565b9150612a5b8261389e565b604082019050919050565b6000612a736029836130db565b9150612a7e826138ed565b604082019050919050565b6000612a96602f836130db565b9150612aa18261393c565b604082019050919050565b6000612ab9600a836130ec565b9150612ac48261398b565b600a82019050919050565b6000612adc6021836130db565b9150612ae7826139b4565b604082019050919050565b6000612aff600a836130ec565b9150612b0a82613a03565b600a82019050919050565b6000612b22601d836130ec565b9150612b2d82613a2c565b601d82019050919050565b6000612b456031836130db565b9150612b5082613a55565b604082019050919050565b612b6481613276565b82525050565b6000612b768284612763565b915081905092915050565b6000612b8d8285612763565b9150612b998284612763565b91508190509392505050565b6000612bb18286612763565b9150612bbd8285612763565b9150612bc98284612763565b9150819050949350505050565b6000612be28287612794565b9150612bee8286612763565b9150612bfa8285612763565b9150612c068284612763565b9150612c118261292b565b915081905095945050505050565b6000612c2a82612859565b9150612c368284612763565b915081905092915050565b6000612c4c826128e5565b9150612c588284612763565b915081905092915050565b6000612c6e82612aac565b9150612c7a8285612763565b9150612c85826128c2565b9150612c918284612763565b9150612c9c826129da565b91508190509392505050565b6000612cb382612af2565b9150612cbf8284612763565b915081905092915050565b6000612cd582612b15565b9150612ce18284612763565b915081905092915050565b6000602082019050612d0160008301846126d3565b92915050565b6000608082019050612d1c60008301876126d3565b612d2960208301866126d3565b612d366040830185612b5b565b8181036060830152612d4881846126f1565b905095945050505050565b6000604082019050612d6860008301856126d3565b612d756020830184612b5b565b9392505050565b6000602082019050612d9160008301846126e2565b92915050565b60006020820190508181036000830152612db1818461272a565b905092915050565b60006040820190508181036000830152612dd3818561272a565b90508181036020830152612de7818461272a565b90509392505050565b60006060820190508181036000830152612e0a818661272a565b9050612e196020830185612b5b565b612e2660408301846126d3565b949350505050565b60006020820190508181036000830152612e4781612813565b9050919050565b60006020820190508181036000830152612e6781612836565b9050919050565b60006020820190508181036000830152612e878161287c565b9050919050565b60006020820190508181036000830152612ea78161289f565b9050919050565b60006020820190508181036000830152612ec781612908565b9050919050565b60006020820190508181036000830152612ee78161294e565b9050919050565b60006020820190508181036000830152612f0781612971565b9050919050565b60006020820190508181036000830152612f2781612994565b9050919050565b60006020820190508181036000830152612f47816129b7565b9050919050565b60006020820190508181036000830152612f67816129fd565b9050919050565b60006020820190508181036000830152612f8781612a20565b9050919050565b60006020820190508181036000830152612fa781612a43565b9050919050565b60006020820190508181036000830152612fc781612a66565b9050919050565b60006020820190508181036000830152612fe781612a89565b9050919050565b6000602082019050818103600083015261300781612acf565b9050919050565b6000602082019050818103600083015261302781612b38565b9050919050565b60006020820190506130436000830184612b5b565b92915050565b6000613053613064565b905061305f82826132f4565b919050565b6000604051905090565b600067ffffffffffffffff8211156130895761308861342c565b5b6130928261345b565b9050602081019050919050565b60008190508160005260206000209050919050565b600081519050919050565b600081519050919050565b600082825260208201905092915050565b600082825260208201905092915050565b600081905092915050565b600061310282613276565b915061310d83613276565b9250827fffffffffffffffffffffffffffffffffffffffffffffffffffffffffffffffff038211156131425761314161339f565b5b828201905092915050565b600061315882613276565b915061316383613276565b925082613173576131726133ce565b5b828204905092915050565b600061318982613276565b915061319483613276565b9250817fffffffffffffffffffffffffffffffffffffffffffffffffffffffffffffffff04831182151516156131cd576131cc61339f565b5b828202905092915050565b60006131e382613276565b91506131ee83613276565b9250828210156132015761320061339f565b5b828203905092915050565b600061321782613256565b9050919050565b60008115159050919050565b60007fffffffff0000000000000000000000000000000000000000000000000000000082169050919050565b600073ffffffffffffffffffffffffffffffffffffffff82169050919050565b6000819050919050565b82818337600083830152505050565b60005b838110156132ad578082015181840152602081019050613292565b838111156132bc576000848401525b50505050565b600060028204905060018216806132da57607f821691505b602082108114156132ee576132ed6133fd565b5b50919050565b6132fd8261345b565b810181811067ffffffffffffffff8211171561331c5761331b61342c565b5b80604052505050565b600061333082613276565b91507fffffffffffffffffffffffffffffffffffffffffffffffffffffffffffffffff8214156133635761336261339f565b5b600182019050919050565b600061337982613276565b915061338483613276565b925082613394576133936133ce565b5b828206905092915050565b7f4e487b7100000000000000000000000000000000000000000000000000000000600052601160045260246000fd5b7f4e487b7100000000000000000000000000000000000000000000000000000000600052601260045260246000fd5b7f4e487b7100000000000000000000000000000000000000000000000000000000600052602260045260246000fd5b7f4e487b7100000000000000000000000000000000000000000000000000000000600052604160045260246000fd5b6000601f19601f8301169050919050565b7f4552433732313a207472616e7366657220746f206e6f6e20455243373231526560008201527f63656976657220696d706c656d656e7465720000000000000000000000000000602082015250565b7f4552433732313a20746f6b656e20616c7265616479206d696e74656400000000600082015250565b7f54484952445f574f524400000000000000000000000000000000000000000000600082015250565b7f4552433732313a207472616e7366657220746f20746865207a65726f2061646460008201527f7265737300000000000000000000000000000000000000000000000000000000602082015250565b7f4552433732313a20617070726f766520746f2063616c6c657200000000000000600082015250565b7f222c20226465736372697074696f6e223a20224120686967686c79206163636c60008201527f61696d656420636f6c6c656374696f6e206f6620737175617265732e222c202260208201527f696d616765223a2022646174613a696d6167652f7376672b786d6c3b6261736560408201527f36342c0000000000000000000000000000000000000000000000000000000000606082015250565b7f5345434f4e445f574f5244000000000000000000000000000000000000000000600082015250565b7f4552433732313a206f70657261746f7220717565727920666f72206e6f6e657860008201527f697374656e7420746f6b656e0000000000000000000000000000000000000000602082015250565b7f3c2f746578743e3c2f7376673e00000000000000000000000000000000000000600082015250565b7f4552433732313a20617070726f76652063616c6c6572206973206e6f74206f7760008201527f6e6572206e6f7220617070726f76656420666f7220616c6c0000000000000000602082015250565b7f4552433732313a2062616c616e636520717565727920666f7220746865207a6560008201527f726f206164647265737300000000000000000000000000000000000000000000602082015250565b7f4552433732313a206f776e657220717565727920666f72206e6f6e657869737460008201527f656e7420746f6b656e0000000000000000000000000000000000000000000000602082015250565b7f45524337323155524953746f726167653a2055524920736574206f66206e6f6e60008201527f6578697374656e7420746f6b656e000000000000000000000000000000000000602082015250565b7f227d000000000000000000000000000000000000000000000000000000000000600082015250565b7f4552433732313a206d696e7420746f20746865207a65726f2061646472657373600082015250565b7f45524337323155524953746f726167653a2055524920717565727920666f722060008201527f6e6f6e6578697374656e7420746f6b656e000000000000000000000000000000602082015250565b7f4552433732313a20617070726f76656420717565727920666f72206e6f6e657860008201527f697374656e7420746f6b656e0000000000000000000000000000000000000000602082015250565b7f4552433732313a207472616e73666572206f6620746f6b656e2074686174206960008201527f73206e6f74206f776e0000000000000000000000000000000000000000000000602082015250565b7f4552433732314d657461646174613a2055524920717565727920666f72206e6f60008201527f6e6578697374656e7420746f6b656e0000000000000000000000000000000000602082015250565b7f7b226e616d65223a202200000000000000000000000000000000000000000000600082015250565b7f4552433732313a20617070726f76616c20746f2063757272656e74206f776e6560008201527f7200000000000000000000000000000000000000000000000000000000000000602082015250565b7f46495253545f574f524400000000000000000000000000000000000000000000600082015250565b7f646174613a6170706c69636174696f6e2f6a736f6e3b6261736536342c000000600082015250565b7f4552433732313a207472616e736665722063616c6c6572206973206e6f74206f60008201527f776e6572206e6f7220617070726f766564000000000000000000000000000000602082015250565b613aad8161320c565b8114613ab857600080fd5b50565b613ac48161321e565b8114613acf57600080fd5b50565b613adb8161322a565b8114613ae657600080fd5b50565b613af281613276565b8114613afd57600080fd5b5056fe416e204e465420772f20257320494420686173206265206d696e74656420746f206a6a6a6a6a6a6a6a6a7232337725736d6d6d3334326d6d6d6d6d6d6d6d6d6d4142434445464748494a4b4c4d4e4f505152535455565758595a6162636465666768696a6b6c6d6e6f707172737475767778797a303132333435363738392b2fa2646970667358221220cf9fcd0e210546f15d52a19ae8b92620f7414394461e5644831a350b8392aff964736f6c634300080400333c73766720786d6c6e733d27687474703a2f2f7777772e77332e6f72672f323030302f73766727207072657365727665417370656374526174696f3d27784d696e594d696e206d656574272076696577426f783d273020302033353020333530273e3c7374796c653e2e62617365207b2066696c6c3a2077686974653b20666f6e742d66616d696c793a2073657269663b20666f6e742d73697a653a20323470783b207d3c2f7374796c653e3c726563742077696474683d273130302527206865696768743d2731303025272066696c6c3d27626c61636b27202f3e3c7465787420783d273530252720793d273530252720636c6173733d27626173652720646f6d696e616e742d626173656c696e653d276d6964646c652720746578742d616e63686f723d276d6964646c65273e",
  "linkReferences": {},
  "deployedLinkReferences": {}
}